{
  "address": "0x2c9D3bA7e06c9c7EC095359D18d397B5D7D4a8c6",
  "abi": [
    {
      "inputs": [
        {
          "internalType": "address",
          "name": "_erc20",
          "type": "address"
        },
        {
          "internalType": "uint256",
          "name": "_amount",
          "type": "uint256"
        }
      ],
      "stateMutability": "nonpayable",
      "type": "constructor"
    },
    {
      "anonymous": false,
      "inputs": [
        {
          "indexed": true,
          "internalType": "address",
          "name": "previousOwner",
          "type": "address"
        },
        {
          "indexed": true,
          "internalType": "address",
          "name": "newOwner",
          "type": "address"
        }
      ],
      "name": "OwnershipTransferred",
      "type": "event"
    },
    {
      "inputs": [],
      "name": "amount",
      "outputs": [
        {
          "internalType": "uint256",
          "name": "",
          "type": "uint256"
        }
      ],
      "stateMutability": "view",
      "type": "function"
    },
    {
      "inputs": [],
      "name": "erc20",
      "outputs": [
        {
          "internalType": "address",
          "name": "",
          "type": "address"
        }
      ],
      "stateMutability": "view",
      "type": "function"
    },
    {
      "inputs": [],
      "name": "owner",
      "outputs": [
        {
          "internalType": "address",
          "name": "",
          "type": "address"
        }
      ],
      "stateMutability": "view",
      "type": "function"
    },
    {
      "inputs": [],
      "name": "renounceOwnership",
      "outputs": [],
      "stateMutability": "nonpayable",
      "type": "function"
    },
    {
      "inputs": [
        {
          "internalType": "address",
          "name": "_erc20",
          "type": "address"
        },
        {
          "internalType": "uint256",
          "name": "_amount",
          "type": "uint256"
        }
      ],
      "name": "setParameters",
      "outputs": [],
      "stateMutability": "nonpayable",
      "type": "function"
    },
    {
      "inputs": [
        {
          "internalType": "address",
          "name": "newOwner",
          "type": "address"
        }
      ],
      "name": "transferOwnership",
      "outputs": [],
      "stateMutability": "nonpayable",
      "type": "function"
    },
    {
      "inputs": [],
      "name": "withdraw",
      "outputs": [],
      "stateMutability": "nonpayable",
      "type": "function"
    }
  ],
  "transactionHash": "0xb9bb1598b36f069905a311af17644c88e513d91205093524ab45f75617885ed3",
  "args": [
    "0xc8fed58d49c9fd3d2690e0eb29cde9678cc45a9a",
    "1000000000000000000000"
  ],
  "solcInputHash": "1fd6db3f70a87eb486c3ce1f7bb37873",
  "bytecode": "0x60806040523480156200001157600080fd5b5060405162000f0738038062000f078339818101604052810190620000379190620002bc565b6000620000496200010160201b60201c565b9050806000806101000a81548173ffffffffffffffffffffffffffffffffffffffff021916908373ffffffffffffffffffffffffffffffffffffffff1602179055508073ffffffffffffffffffffffffffffffffffffffff16600073ffffffffffffffffffffffffffffffffffffffff167f8be0079c531659141344cd1fd0a4f28419497f9722a3daafe3b4186f6b6457e060405160405180910390a350620000f982826200010960201b60201c565b505062000464565b600033905090565b620001196200010160201b60201c565b73ffffffffffffffffffffffffffffffffffffffff166200013f6200026560201b60201c565b73ffffffffffffffffffffffffffffffffffffffff161462000198576040517f08c379a00000000000000000000000000000000000000000000000000000000081526004016200018f906200036d565b60405180910390fd5b600073ffffffffffffffffffffffffffffffffffffffff168273ffffffffffffffffffffffffffffffffffffffff1614158015620001d7575060008114155b62000219576040517f08c379a000000000000000000000000000000000000000000000000000000000815260040162000210906200034b565b60405180910390fd5b81600160006101000a81548173ffffffffffffffffffffffffffffffffffffffff021916908373ffffffffffffffffffffffffffffffffffffffff160217905550806002819055505050565b60008060009054906101000a900473ffffffffffffffffffffffffffffffffffffffff16905090565b6000815190506200029f8162000430565b92915050565b600081519050620002b6816200044a565b92915050565b60008060408385031215620002d057600080fd5b6000620002e0858286016200028e565b9250506020620002f385828601620002a5565b9150509250929050565b60006200030c6012836200038f565b91506200031982620003de565b602082019050919050565b6000620003336020836200038f565b9150620003408262000407565b602082019050919050565b600060208201905081810360008301526200036681620002fd565b9050919050565b60006020820190508181036000830152620003888162000324565b9050919050565b600082825260208201905092915050565b6000620003ad82620003b4565b9050919050565b600073ffffffffffffffffffffffffffffffffffffffff82169050919050565b6000819050919050565b7f496e76616c696420706172616d65746572730000000000000000000000000000600082015250565b7f4f776e61626c653a2063616c6c6572206973206e6f7420746865206f776e6572600082015250565b6200043b81620003a0565b81146200044757600080fd5b50565b6200045581620003d4565b81146200046157600080fd5b50565b610a9380620004746000396000f3fe608060405234801561001057600080fd5b506004361061007d5760003560e01c80638da5cb5b1161005b5780638da5cb5b146100b4578063aa8c217c146100d2578063c4198161146100f0578063f2fde38b1461010c5761007d565b80633ccfd60b14610082578063715018a61461008c578063785e9e8614610096575b600080fd5b61008a610128565b005b61009461021a565b005b61009e610354565b6040516100ab9190610816565b60405180910390f35b6100bc61037a565b6040516100c99190610816565b60405180910390f35b6100da6103a3565b6040516100e791906108da565b60405180910390f35b61010a60048036038101906101059190610707565b6103a9565b005b610126600480360381019061012191906106de565b6104ee565b005b600160009054906101000a900473ffffffffffffffffffffffffffffffffffffffff1673ffffffffffffffffffffffffffffffffffffffff1663a9059cbb336002546040518363ffffffff1660e01b8152600401610187929190610831565b602060405180830381600087803b1580156101a157600080fd5b505af11580156101b5573d6000803e3d6000fd5b505050506040513d601f19601f820116820180604052508101906101d99190610743565b610218576040517f08c379a000000000000000000000000000000000000000000000000000000000815260040161020f9061087a565b60405180910390fd5b565b610222610697565b73ffffffffffffffffffffffffffffffffffffffff1661024061037a565b73ffffffffffffffffffffffffffffffffffffffff1614610296576040517f08c379a000000000000000000000000000000000000000000000000000000000815260040161028d906108ba565b60405180910390fd5b600073ffffffffffffffffffffffffffffffffffffffff1660008054906101000a900473ffffffffffffffffffffffffffffffffffffffff1673ffffffffffffffffffffffffffffffffffffffff167f8be0079c531659141344cd1fd0a4f28419497f9722a3daafe3b4186f6b6457e060405160405180910390a360008060006101000a81548173ffffffffffffffffffffffffffffffffffffffff021916908373ffffffffffffffffffffffffffffffffffffffff160217905550565b600160009054906101000a900473ffffffffffffffffffffffffffffffffffffffff1681565b60008060009054906101000a900473ffffffffffffffffffffffffffffffffffffffff16905090565b60025481565b6103b1610697565b73ffffffffffffffffffffffffffffffffffffffff166103cf61037a565b73ffffffffffffffffffffffffffffffffffffffff1614610425576040517f08c379a000000000000000000000000000000000000000000000000000000000815260040161041c906108ba565b60405180910390fd5b600073ffffffffffffffffffffffffffffffffffffffff168273ffffffffffffffffffffffffffffffffffffffff1614158015610463575060008114155b6104a2576040517f08c379a00000000000000000000000000000000000000000000000000000000081526004016104999061089a565b60405180910390fd5b81600160006101000a81548173ffffffffffffffffffffffffffffffffffffffff021916908373ffffffffffffffffffffffffffffffffffffffff160217905550806002819055505050565b6104f6610697565b73ffffffffffffffffffffffffffffffffffffffff1661051461037a565b73ffffffffffffffffffffffffffffffffffffffff161461056a576040517f08c379a0000000000000000000000000000000000000000000000000000000008152600401610561906108ba565b60405180910390fd5b600073ffffffffffffffffffffffffffffffffffffffff168173ffffffffffffffffffffffffffffffffffffffff1614156105da576040517f08c379a00000000000000000000000000000000000000000000000000000000081526004016105d19061085a565b60405180910390fd5b8073ffffffffffffffffffffffffffffffffffffffff1660008054906101000a900473ffffffffffffffffffffffffffffffffffffffff1673ffffffffffffffffffffffffffffffffffffffff167f8be0079c531659141344cd1fd0a4f28419497f9722a3daafe3b4186f6b6457e060405160405180910390a3806000806101000a81548173ffffffffffffffffffffffffffffffffffffffff021916908373ffffffffffffffffffffffffffffffffffffffff16021790555050565b600033905090565b6000813590506106ae81610a18565b92915050565b6000815190506106c381610a2f565b92915050565b6000813590506106d881610a46565b92915050565b6000602082840312156106f057600080fd5b60006106fe8482850161069f565b91505092915050565b6000806040838503121561071a57600080fd5b60006107288582860161069f565b9250506020610739858286016106c9565b9150509250929050565b60006020828403121561075557600080fd5b6000610763848285016106b4565b91505092915050565b61077581610906565b82525050565b60006107886026836108f5565b91506107938261094e565b604082019050919050565b60006107ab600f836108f5565b91506107b68261099d565b602082019050919050565b60006107ce6012836108f5565b91506107d9826109c6565b602082019050919050565b60006107f16020836108f5565b91506107fc826109ef565b602082019050919050565b61081081610944565b82525050565b600060208201905061082b600083018461076c565b92915050565b6000604082019050610846600083018561076c565b6108536020830184610807565b9392505050565b600060208201905081810360008301526108738161077b565b9050919050565b600060208201905081810360008301526108938161079e565b9050919050565b600060208201905081810360008301526108b3816107c1565b9050919050565b600060208201905081810360008301526108d3816107e4565b9050919050565b60006020820190506108ef6000830184610807565b92915050565b600082825260208201905092915050565b600061091182610924565b9050919050565b60008115159050919050565b600073ffffffffffffffffffffffffffffffffffffffff82169050919050565b6000819050919050565b7f4f776e61626c653a206e6577206f776e657220697320746865207a65726f206160008201527f6464726573730000000000000000000000000000000000000000000000000000602082015250565b7f5472616e73666572206661696c65640000000000000000000000000000000000600082015250565b7f496e76616c696420706172616d65746572730000000000000000000000000000600082015250565b7f4f776e61626c653a2063616c6c6572206973206e6f7420746865206f776e6572600082015250565b610a2181610906565b8114610a2c57600080fd5b50565b610a3881610918565b8114610a4357600080fd5b50565b610a4f81610944565b8114610a5a57600080fd5b5056fea2646970667358221220d48b34976970ec647e6912b4f55968cb24d6e6602c823b4ec054bb767d63c72364736f6c63430008040033",
  "devdoc": {
    "kind": "dev",
    "methods": {
      "owner()": {
        "details": "Returns the address of the current owner."
      },
      "renounceOwnership()": {
        "details": "Leaves the contract without owner. It will not be possible to call `onlyOwner` functions anymore. Can only be called by the current owner. NOTE: Renouncing ownership will leave the contract without an owner, thereby removing any functionality that is only available to the owner."
      },
      "transferOwnership(address)": {
        "details": "Transfers ownership of the contract to a new account (`newOwner`). Can only be called by the current owner."
      }
    },
    "version": 1
  },
  "userdoc": {
    "kind": "user",
    "methods": {},
    "version": 1
  },
  "storageLayout": {
    "storage": [
      {
        "astId": 7,
        "contract": "contracts/ERC20Faucet.sol:ERC20Faucet",
        "label": "_owner",
        "offset": 0,
        "slot": "0",
        "type": "t_address"
      },
      {
        "astId": 218,
        "contract": "contracts/ERC20Faucet.sol:ERC20Faucet",
        "label": "erc20",
        "offset": 0,
        "slot": "1",
        "type": "t_address"
      },
      {
        "astId": 220,
        "contract": "contracts/ERC20Faucet.sol:ERC20Faucet",
        "label": "amount",
        "offset": 0,
        "slot": "2",
        "type": "t_uint256"
      }
    ],
    "types": {
      "t_address": {
        "encoding": "inplace",
        "label": "address",
        "numberOfBytes": "20"
      },
      "t_uint256": {
        "encoding": "inplace",
        "label": "uint256",
        "numberOfBytes": "32"
      }
    }
  }
}